{
  "contractName": "EVoting",
  "abi": [
    {
      "anonymous": false,
      "inputs": [
        {
          "indexed": false,
          "internalType": "uint256",
          "name": "ballotId",
          "type": "uint256"
        },
        {
          "indexed": false,
          "internalType": "uint256[]",
          "name": "optionCounts",
          "type": "uint256[]"
        }
      ],
      "name": "VoteEnded",
      "type": "event"
    },
    {
      "anonymous": false,
      "inputs": [
        {
          "indexed": false,
          "internalType": "uint256",
          "name": "ballotId",
          "type": "uint256"
        }
      ],
      "name": "VoteStarted",
      "type": "event"
    },
    {
      "anonymous": false,
      "inputs": [
        {
          "indexed": true,
          "internalType": "address",
          "name": "voter",
          "type": "address"
        },
        {
          "indexed": false,
          "internalType": "uint256",
          "name": "ballotId",
          "type": "uint256"
        },
        {
          "indexed": false,
          "internalType": "uint256[]",
          "name": "selectedOptions",
          "type": "uint256[]"
        }
      ],
      "name": "Voted",
      "type": "event"
    },
    {
      "inputs": [],
      "name": "nextBallotId",
      "outputs": [
        {
          "internalType": "uint256",
          "name": "",
          "type": "uint256"
        }
      ],
      "stateMutability": "view",
      "type": "function"
    },
    {
      "inputs": [
        {
          "internalType": "uint256",
          "name": "ballotId",
          "type": "uint256"
        }
      ],
      "name": "isVotingOpen",
      "outputs": [
        {
          "internalType": "bool",
          "name": "",
          "type": "bool"
        }
      ],
      "stateMutability": "view",
      "type": "function"
    },
    {
      "inputs": [
        {
          "internalType": "uint256",
          "name": "ballotId",
          "type": "uint256"
        }
      ],
      "name": "getMaxChoices",
      "outputs": [
        {
          "internalType": "uint256",
          "name": "",
          "type": "uint256"
        }
      ],
      "stateMutability": "view",
      "type": "function"
    },
    {
      "inputs": [
        {
          "internalType": "uint256",
          "name": "ballotId",
          "type": "uint256"
        },
        {
          "internalType": "uint256",
          "name": "option",
          "type": "uint256"
        }
      ],
      "name": "getOptionCount",
      "outputs": [
        {
          "internalType": "uint256",
          "name": "",
          "type": "uint256"
        }
      ],
      "stateMutability": "view",
      "type": "function"
    },
    {
      "inputs": [
        {
          "internalType": "uint256",
          "name": "ballotId",
          "type": "uint256"
        },
        {
          "internalType": "address",
          "name": "voter",
          "type": "address"
        }
      ],
      "name": "hasVoted",
      "outputs": [
        {
          "internalType": "bool",
          "name": "",
          "type": "bool"
        }
      ],
      "stateMutability": "view",
      "type": "function"
    },
    {
      "inputs": [
        {
          "internalType": "uint256[]",
          "name": "_options",
          "type": "uint256[]"
        },
        {
          "internalType": "uint256",
          "name": "_maxChoices",
          "type": "uint256"
        }
      ],
      "name": "startVote",
      "outputs": [],
      "stateMutability": "nonpayable",
      "type": "function"
    },
    {
      "inputs": [
        {
          "internalType": "uint256",
          "name": "ballotId",
          "type": "uint256"
        },
        {
          "internalType": "uint256[]",
          "name": "selectedOptions",
          "type": "uint256[]"
        }
      ],
      "name": "castVote",
      "outputs": [],
      "stateMutability": "nonpayable",
      "type": "function"
    },
    {
      "inputs": [
        {
          "internalType": "uint256",
          "name": "ballotId",
          "type": "uint256"
        }
      ],
      "name": "tallyVotes",
      "outputs": [],
      "stateMutability": "nonpayable",
      "type": "function"
    }
  ],
  "bytecode": "0x608060405234801561000f575f80fd5b50610fe88061001d5f395ff3fe608060405234801561000f575f80fd5b5060043610610086575f3560e01c80634d318b0e116100595780634d318b0e146101225780636aea03441461013e57806382c9318c1461016e578063dc6bfbb51461019e57610086565b8063074dbaa61461008a578063286ee100146100ba5780632fa48e9e146100d657806343859632146100f2575b5f80fd5b6100a4600480360381019061009f919061091c565b6101bc565b6040516100b19190610961565b60405180910390f35b6100d460048036038101906100cf9190610aca565b6101e4565b005b6100f060048036038101906100eb9190610b24565b6102a4565b005b61010c60048036038101906101079190610bd8565b6105c2565b6040516101199190610961565b60405180910390f35b61013c6004803603810190610137919061091c565b610625565b005b61015860048036038101906101539190610c16565b6107ca565b6040516101659190610c63565b60405180910390f35b6101886004803603810190610183919061091c565b6107f8565b6040516101959190610c63565b60405180910390f35b6101a6610814565b6040516101b39190610c63565b60405180910390f35b5f805f8381526020019081526020015f206002015f9054906101000a900460ff169050919050565b5f60015f8154809291906101f790610ca9565b91905055905060015f808381526020019081526020015f206002015f6101000a81548160ff021916908315150217905550825f808381526020019081526020015f20600301908051906020019061024f929190610872565b50815f808381526020019081526020015f20600401819055507fa80808a30283fc2c95db95a081ef4462dd38bb7854e6569e34c0b501eed90f4e816040516102979190610c63565b60405180910390a1505050565b5f808381526020019081526020015f206002015f9054906101000a900460ff16610303576040517f08c379a00000000000000000000000000000000000000000000000000000000081526004016102fa90610d4a565b60405180910390fd5b5f808381526020019081526020015f205f015f3373ffffffffffffffffffffffffffffffffffffffff1673ffffffffffffffffffffffffffffffffffffffff1681526020019081526020015f205f9054906101000a900460ff161561039d576040517f08c379a000000000000000000000000000000000000000000000000000000000815260040161039490610db2565b60405180910390fd5b5f808381526020019081526020015f2060040154815111156103f4576040517f08c379a00000000000000000000000000000000000000000000000000000000081526004016103eb90610e1a565b60405180910390fd5b5f805f8481526020019081526020015f2090505f5b8251811015610507575f83828151811061042657610425610e38565b5b6020026020010151905061048a818460030180548060200260200160405190810160405280929190818152602001828054801561048057602002820191905f5260205f20905b81548152602001906001019080831161046c575b505050505061081a565b6104c9576040517f08c379a00000000000000000000000000000000000000000000000000000000081526004016104c090610eaf565b60405180910390fd5b826001015f015f8281526020019081526020015f205f8154809291906104ee90610ca9565b91905055505080806104ff90610ca9565b915050610409565b5060015f808581526020019081526020015f205f015f3373ffffffffffffffffffffffffffffffffffffffff1673ffffffffffffffffffffffffffffffffffffffff1681526020019081526020015f205f6101000a81548160ff0219169083151502179055503373ffffffffffffffffffffffffffffffffffffffff167f871b62f932d6ef8afa59aed962334ae3a32efd388f7ec8932a67b7e47ae7795a84846040516105b5929190610f84565b60405180910390a2505050565b5f805f8481526020019081526020015f205f015f8373ffffffffffffffffffffffffffffffffffffffff1673ffffffffffffffffffffffffffffffffffffffff1681526020019081526020015f205f9054906101000a900460ff16905092915050565b5f808281526020019081526020015f206002015f9054906101000a900460ff16610684576040517f08c379a000000000000000000000000000000000000000000000000000000000815260040161067b90610d4a565b60405180910390fd5b5f805f8381526020019081526020015f206002015f6101000a81548160ff0219169083151502179055505f805f8381526020019081526020015f2090505f816003018054905067ffffffffffffffff8111156106e3576106e261098e565b5b6040519080825280602002602001820160405280156107115781602001602082028036833780820191505090505b5090505f5b826003018054905081101561078b57826001015f015f84600301838154811061074257610741610e38565b5b905f5260205f20015481526020019081526020015f205482828151811061076c5761076b610e38565b5b602002602001018181525050808061078390610ca9565b915050610716565b507fa6f327f4e4d609a399484d257d812554d138a7c4546183a067aae0a49b5ef5ec83826040516107bd929190610f84565b60405180910390a1505050565b5f805f8481526020019081526020015f206001015f015f8381526020019081526020015f2054905092915050565b5f805f8381526020019081526020015f20600401549050919050565b60015481565b5f805f90505b8251811015610867578383828151811061083d5761083c610e38565b5b60200260200101510361085457600191505061086c565b808061085f90610ca9565b915050610820565b505f90505b92915050565b828054828255905f5260205f209081019282156108ac579160200282015b828111156108ab578251825591602001919060010190610890565b5b5090506108b991906108bd565b5090565b5b808211156108d4575f815f9055506001016108be565b5090565b5f604051905090565b5f80fd5b5f80fd5b5f819050919050565b6108fb816108e9565b8114610905575f80fd5b50565b5f81359050610916816108f2565b92915050565b5f60208284031215610931576109306108e1565b5b5f61093e84828501610908565b91505092915050565b5f8115159050919050565b61095b81610947565b82525050565b5f6020820190506109745f830184610952565b92915050565b5f80fd5b5f601f19601f8301169050919050565b7f4e487b71000000000000000000000000000000000000000000000000000000005f52604160045260245ffd5b6109c48261097e565b810181811067ffffffffffffffff821117156109e3576109e261098e565b5b80604052505050565b5f6109f56108d8565b9050610a0182826109bb565b919050565b5f67ffffffffffffffff821115610a2057610a1f61098e565b5b602082029050602081019050919050565b5f80fd5b5f610a47610a4284610a06565b6109ec565b90508083825260208201905060208402830185811115610a6a57610a69610a31565b5b835b81811015610a935780610a7f8882610908565b845260208401935050602081019050610a6c565b5050509392505050565b5f82601f830112610ab157610ab061097a565b5b8135610ac1848260208601610a35565b91505092915050565b5f8060408385031215610ae057610adf6108e1565b5b5f83013567ffffffffffffffff811115610afd57610afc6108e5565b5b610b0985828601610a9d565b9250506020610b1a85828601610908565b9150509250929050565b5f8060408385031215610b3a57610b396108e1565b5b5f610b4785828601610908565b925050602083013567ffffffffffffffff811115610b6857610b676108e5565b5b610b7485828601610a9d565b9150509250929050565b5f73ffffffffffffffffffffffffffffffffffffffff82169050919050565b5f610ba782610b7e565b9050919050565b610bb781610b9d565b8114610bc1575f80fd5b50565b5f81359050610bd281610bae565b92915050565b5f8060408385031215610bee57610bed6108e1565b5b5f610bfb85828601610908565b9250506020610c0c85828601610bc4565b9150509250929050565b5f8060408385031215610c2c57610c2b6108e1565b5b5f610c3985828601610908565b9250506020610c4a85828601610908565b9150509250929050565b610c5d816108e9565b82525050565b5f602082019050610c765f830184610c54565b92915050565b7f4e487b71000000000000000000000000000000000000000000000000000000005f52601160045260245ffd5b5f610cb3826108e9565b91507fffffffffffffffffffffffffffffffffffffffffffffffffffffffffffffffff8203610ce557610ce4610c7c565b5b600182019050919050565b5f82825260208201905092915050565b7f566f74696e67206973206e6f74206f70656e00000000000000000000000000005f82015250565b5f610d34601283610cf0565b9150610d3f82610d00565b602082019050919050565b5f6020820190508181035f830152610d6181610d28565b9050919050565b7f416c726561647920766f746564000000000000000000000000000000000000005f82015250565b5f610d9c600d83610cf0565b9150610da782610d68565b602082019050919050565b5f6020820190508181035f830152610dc981610d90565b9050919050565b7f546f6f206d616e792063686f696365732073656c6563746564000000000000005f82015250565b5f610e04601983610cf0565b9150610e0f82610dd0565b602082019050919050565b5f6020820190508181035f830152610e3181610df8565b9050919050565b7f4e487b71000000000000000000000000000000000000000000000000000000005f52603260045260245ffd5b7f496e76616c6964206f7074696f6e2073656c65637465640000000000000000005f82015250565b5f610e99601783610cf0565b9150610ea482610e65565b602082019050919050565b5f6020820190508181035f830152610ec681610e8d565b9050919050565b5f81519050919050565b5f82825260208201905092915050565b5f819050602082019050919050565b610eff816108e9565b82525050565b5f610f108383610ef6565b60208301905092915050565b5f602082019050919050565b5f610f3282610ecd565b610f3c8185610ed7565b9350610f4783610ee7565b805f5b83811015610f77578151610f5e8882610f05565b9750610f6983610f1c565b925050600181019050610f4a565b5085935050505092915050565b5f604082019050610f975f830185610c54565b8181036020830152610fa98184610f28565b9050939250505056fea26469706673582212204573af11a6ad8957c58a4e6dcdadf3be0e635e18665b6aa8d50ae29dacc06a9064736f6c63430008150033",
  "immutableReferences": {},
  "source": "// SPDX-License-Identifier: MIT\r\n\r\npragma solidity ^0.8.0;\r\n\r\ncontract EVoting {\r\n\r\n    struct Vote {\r\n        mapping(uint256 => uint256) optionCounts; // Counts votes for each option\r\n    }\r\n\r\n    struct Ballot {\r\n        mapping(address => bool) hasVoted; // Tracks if an address has voted\r\n        Vote count; // Vote counts for this ballot\r\n        bool votingOpen; // Indicates if the voting is open\r\n        uint256[] options; // Array of option IDs\r\n        uint256 maxChoices; // Maximum number of choices allowed per vote\r\n    }\r\n\r\n    mapping(uint256 => Ballot) private ballots;\r\n    uint256 public nextBallotId;\r\n\r\n    event VoteStarted(uint256 ballotId);\r\n    event Voted(address indexed voter, uint256 ballotId, uint256[] selectedOptions);\r\n    event VoteEnded(uint256 ballotId, uint256[] optionCounts);\r\n\r\n    function isVotingOpen(uint256 ballotId) public view returns (bool) {\r\n        return ballots[ballotId].votingOpen;\r\n    }\r\n\r\n    function getMaxChoices(uint256 ballotId) public view returns (uint256) {\r\n        return ballots[ballotId].maxChoices;\r\n    }\r\n\r\n    function getOptionCount(uint256 ballotId, uint256 option) public view returns (uint256) {\r\n        return ballots[ballotId].count.optionCounts[option];\r\n    }\r\n\r\n    function hasVoted(uint256 ballotId, address voter) public view returns (bool) {\r\n        return ballots[ballotId].hasVoted[voter];\r\n    }\r\n\r\n    function startVote(uint256[] memory _options, uint256 _maxChoices) public {\r\n        uint256 ballotId = nextBallotId++;\r\n        ballots[ballotId].votingOpen = true;\r\n        ballots[ballotId].options = _options;\r\n        ballots[ballotId].maxChoices = _maxChoices;\r\n        emit VoteStarted(ballotId);\r\n    }\r\n\r\n    function castVote(uint256 ballotId, uint256[] memory selectedOptions) public {\r\n        require(ballots[ballotId].votingOpen, \"Voting is not open\");\r\n        require(!ballots[ballotId].hasVoted[msg.sender], \"Already voted\");\r\n        require(selectedOptions.length <= ballots[ballotId].maxChoices, \"Too many choices selected\");\r\n\r\n        Ballot storage ballot = ballots[ballotId];\r\n        for (uint256 i = 0; i < selectedOptions.length; i++) {\r\n            uint256 option = selectedOptions[i];\r\n            require(isValidOption(option, ballot.options), \"Invalid option selected\");\r\n            ballot.count.optionCounts[option]++;\r\n        }\r\n\r\n        ballots[ballotId].hasVoted[msg.sender] = true;\r\n        emit Voted(msg.sender, ballotId, selectedOptions);\r\n    }\r\n\r\n    function tallyVotes(uint256 ballotId) public {\r\n        require(ballots[ballotId].votingOpen, \"Voting is not open\");\r\n        ballots[ballotId].votingOpen = false;\r\n\r\n        Ballot storage ballot = ballots[ballotId];\r\n        uint256[] memory counts = new uint256[](ballot.options.length);\r\n        for (uint256 i = 0; i < ballot.options.length; i++) {\r\n            counts[i] = ballot.count.optionCounts[ballot.options[i]];\r\n        }\r\n\r\n        emit VoteEnded(ballotId, counts);\r\n    }\r\n\r\n    function isValidOption(uint256 option, uint256[] memory options) private pure returns (bool) {\r\n        for (uint256 i = 0; i < options.length; i++) {\r\n            if (options[i] == option) {\r\n                return true;\r\n            }\r\n        }\r\n        return false;\r\n    }\r\n}\r\n",
  "sourcePath": "C:\\Users\\duenng\\csci2730_project_fall_2023\\uVote\\contracts\\uVote.sol",
  "compiler": {
    "name": "solc",
    "version": "0.8.21+commit.d9974bed.Emscripten.clang"
  },
  "schemaVersion": "3.4.16",
  "updatedAt": "2023-12-06T22:05:52.572Z",
  "devdoc": {
    "kind": "dev",
    "methods": {},
    "version": 1
  },
  "userdoc": {
    "kind": "user",
    "methods": {},
    "version": 1
  }
}