{
  "contractName": "uVote",
  "abi": [
    {
      "anonymous": false,
      "inputs": [
        {
          "indexed": false,
          "internalType": "uint256",
          "name": "ballotId",
          "type": "uint256"
        },
        {
          "indexed": false,
          "internalType": "uint256[]",
          "name": "optionCounts",
          "type": "uint256[]"
        }
      ],
      "name": "VoteEnded",
      "type": "event"
    },
    {
      "anonymous": false,
      "inputs": [
        {
          "indexed": false,
          "internalType": "uint256",
          "name": "ballotId",
          "type": "uint256"
        }
      ],
      "name": "VoteStarted",
      "type": "event"
    },
    {
      "anonymous": false,
      "inputs": [
        {
          "indexed": true,
          "internalType": "address",
          "name": "voter",
          "type": "address"
        },
        {
          "indexed": false,
          "internalType": "uint256",
          "name": "ballotId",
          "type": "uint256"
        },
        {
          "indexed": false,
          "internalType": "uint256[]",
          "name": "selectedOptions",
          "type": "uint256[]"
        }
      ],
      "name": "Voted",
      "type": "event"
    },
    {
      "inputs": [],
      "name": "nextBallotId",
      "outputs": [
        {
          "internalType": "uint256",
          "name": "",
          "type": "uint256"
        }
      ],
      "stateMutability": "view",
      "type": "function",
      "constant": true
    },
    {
      "inputs": [
        {
          "internalType": "uint256",
          "name": "ballotId",
          "type": "uint256"
        }
      ],
      "name": "isVotingOpen",
      "outputs": [
        {
          "internalType": "bool",
          "name": "",
          "type": "bool"
        }
      ],
      "stateMutability": "view",
      "type": "function",
      "constant": true
    },
    {
      "inputs": [
        {
          "internalType": "uint256",
          "name": "ballotId",
          "type": "uint256"
        }
      ],
      "name": "getMaxChoices",
      "outputs": [
        {
          "internalType": "uint256",
          "name": "",
          "type": "uint256"
        }
      ],
      "stateMutability": "view",
      "type": "function",
      "constant": true
    },
    {
      "inputs": [
        {
          "internalType": "uint256",
          "name": "ballotId",
          "type": "uint256"
        },
        {
          "internalType": "uint256",
          "name": "option",
          "type": "uint256"
        }
      ],
      "name": "getOptionCount",
      "outputs": [
        {
          "internalType": "uint256",
          "name": "",
          "type": "uint256"
        }
      ],
      "stateMutability": "view",
      "type": "function",
      "constant": true
    },
    {
      "inputs": [
        {
          "internalType": "uint256",
          "name": "ballotId",
          "type": "uint256"
        },
        {
          "internalType": "address",
          "name": "voter",
          "type": "address"
        }
      ],
      "name": "hasVoted",
      "outputs": [
        {
          "internalType": "bool",
          "name": "",
          "type": "bool"
        }
      ],
      "stateMutability": "view",
      "type": "function",
      "constant": true
    },
    {
      "inputs": [
        {
          "internalType": "uint256[]",
          "name": "_options",
          "type": "uint256[]"
        },
        {
          "internalType": "uint256",
          "name": "_maxChoices",
          "type": "uint256"
        }
      ],
      "name": "startVote",
      "outputs": [],
      "stateMutability": "nonpayable",
      "type": "function"
    },
    {
      "inputs": [
        {
          "internalType": "uint256",
          "name": "ballotId",
          "type": "uint256"
        },
        {
          "internalType": "uint256[]",
          "name": "selectedOptions",
          "type": "uint256[]"
        }
      ],
      "name": "castVote",
      "outputs": [],
      "stateMutability": "nonpayable",
      "type": "function"
    },
    {
      "inputs": [
        {
          "internalType": "uint256",
          "name": "ballotId",
          "type": "uint256"
        }
      ],
      "name": "tallyVotes",
      "outputs": [],
      "stateMutability": "nonpayable",
      "type": "function"
    }
  ],
  "bytecode": "0x608060405234801561001057600080fd5b5061107d806100206000396000f3fe608060405234801561001057600080fd5b50600436106100885760003560e01c80634d318b0e1161005b5780634d318b0e146101255780636aea03441461014157806382c9318c14610171578063dc6bfbb5146101a157610088565b8063074dbaa61461008d578063286ee100146100bd5780632fa48e9e146100d957806343859632146100f5575b600080fd5b6100a760048036038101906100a29190610976565b6101bf565b6040516100b491906109be565b60405180910390f35b6100d760048036038101906100d29190610b32565b6101eb565b005b6100f360048036038101906100ee9190610b8e565b6102b4565b005b61010f600480360381019061010a9190610c48565b6105ee565b60405161011c91906109be565b60405180910390f35b61013f600480360381019061013a9190610976565b610658565b005b61015b60048036038101906101569190610c88565b61080e565b6040516101689190610cd7565b60405180910390f35b61018b60048036038101906101869190610976565b610842565b6040516101989190610cd7565b60405180910390f35b6101a9610861565b6040516101b69190610cd7565b60405180910390f35b600080600083815260200190815260200160002060020160009054906101000a900460ff169050919050565b60006001600081548092919061020090610d21565b919050559050600160008083815260200190815260200160002060020160006101000a81548160ff02191690831515021790555082600080838152602001908152602001600020600301908051906020019061025d9291906108c2565b5081600080838152602001908152602001600020600401819055507fa80808a30283fc2c95db95a081ef4462dd38bb7854e6569e34c0b501eed90f4e816040516102a79190610cd7565b60405180910390a1505050565b60008083815260200190815260200160002060020160009054906101000a900460ff16610316576040517f08c379a000000000000000000000000000000000000000000000000000000000815260040161030d90610dc6565b60405180910390fd5b60008083815260200190815260200160002060000160003373ffffffffffffffffffffffffffffffffffffffff1673ffffffffffffffffffffffffffffffffffffffff16815260200190815260200160002060009054906101000a900460ff16156103b6576040517f08c379a00000000000000000000000000000000000000000000000000000000081526004016103ad90610e32565b60405180910390fd5b600080838152602001908152602001600020600401548151111561040f576040517f08c379a000000000000000000000000000000000000000000000000000000000815260040161040690610e9e565b60405180910390fd5b6000806000848152602001908152602001600020905060005b825181101561052d57600083828151811061044657610445610ebe565b5b602002602001015190506104ac81846003018054806020026020016040519081016040528092919081815260200182805480156104a257602002820191906000526020600020905b81548152602001906001019080831161048e575b5050505050610867565b6104eb576040517f08c379a00000000000000000000000000000000000000000000000000000000081526004016104e290610f39565b60405180910390fd5b826001016000016000828152602001908152602001600020600081548092919061051490610d21565b919050555050808061052590610d21565b915050610428565b50600160008085815260200190815260200160002060000160003373ffffffffffffffffffffffffffffffffffffffff1673ffffffffffffffffffffffffffffffffffffffff16815260200190815260200160002060006101000a81548160ff0219169083151502179055503373ffffffffffffffffffffffffffffffffffffffff167f871b62f932d6ef8afa59aed962334ae3a32efd388f7ec8932a67b7e47ae7795a84846040516105e1929190611017565b60405180910390a2505050565b600080600084815260200190815260200160002060000160008373ffffffffffffffffffffffffffffffffffffffff1673ffffffffffffffffffffffffffffffffffffffff16815260200190815260200160002060009054906101000a900460ff16905092915050565b60008082815260200190815260200160002060020160009054906101000a900460ff166106ba576040517f08c379a00000000000000000000000000000000000000000000000000000000081526004016106b190610dc6565b60405180910390fd5b600080600083815260200190815260200160002060020160006101000a81548160ff021916908315150217905550600080600083815260200190815260200160002090506000816003018054905067ffffffffffffffff811115610721576107206109ef565b5b60405190808252806020026020018201604052801561074f5781602001602082028036833780820191505090505b50905060005b82600301805490508110156107cf5782600101600001600084600301838154811061078357610782610ebe565b5b90600052602060002001548152602001908152602001600020548282815181106107b0576107af610ebe565b5b60200260200101818152505080806107c790610d21565b915050610755565b507fa6f327f4e4d609a399484d257d812554d138a7c4546183a067aae0a49b5ef5ec8382604051610801929190611017565b60405180910390a1505050565b6000806000848152602001908152602001600020600101600001600083815260200190815260200160002054905092915050565b6000806000838152602001908152602001600020600401549050919050565b60015481565b600080600090505b82518110156108b6578383828151811061088c5761088b610ebe565b5b6020026020010151036108a35760019150506108bc565b80806108ae90610d21565b91505061086f565b50600090505b92915050565b8280548282559060005260206000209081019282156108fe579160200282015b828111156108fd5782518255916020019190600101906108e2565b5b50905061090b919061090f565b5090565b5b80821115610928576000816000905550600101610910565b5090565b6000604051905090565b600080fd5b600080fd5b6000819050919050565b61095381610940565b811461095e57600080fd5b50565b6000813590506109708161094a565b92915050565b60006020828403121561098c5761098b610936565b5b600061099a84828501610961565b91505092915050565b60008115159050919050565b6109b8816109a3565b82525050565b60006020820190506109d360008301846109af565b92915050565b600080fd5b6000601f19601f8301169050919050565b7f4e487b7100000000000000000000000000000000000000000000000000000000600052604160045260246000fd5b610a27826109de565b810181811067ffffffffffffffff82111715610a4657610a456109ef565b5b80604052505050565b6000610a5961092c565b9050610a658282610a1e565b919050565b600067ffffffffffffffff821115610a8557610a846109ef565b5b602082029050602081019050919050565b600080fd5b6000610aae610aa984610a6a565b610a4f565b90508083825260208201905060208402830185811115610ad157610ad0610a96565b5b835b81811015610afa5780610ae68882610961565b845260208401935050602081019050610ad3565b5050509392505050565b600082601f830112610b1957610b186109d9565b5b8135610b29848260208601610a9b565b91505092915050565b60008060408385031215610b4957610b48610936565b5b600083013567ffffffffffffffff811115610b6757610b6661093b565b5b610b7385828601610b04565b9250506020610b8485828601610961565b9150509250929050565b60008060408385031215610ba557610ba4610936565b5b6000610bb385828601610961565b925050602083013567ffffffffffffffff811115610bd457610bd361093b565b5b610be085828601610b04565b9150509250929050565b600073ffffffffffffffffffffffffffffffffffffffff82169050919050565b6000610c1582610bea565b9050919050565b610c2581610c0a565b8114610c3057600080fd5b50565b600081359050610c4281610c1c565b92915050565b60008060408385031215610c5f57610c5e610936565b5b6000610c6d85828601610961565b9250506020610c7e85828601610c33565b9150509250929050565b60008060408385031215610c9f57610c9e610936565b5b6000610cad85828601610961565b9250506020610cbe85828601610961565b9150509250929050565b610cd181610940565b82525050565b6000602082019050610cec6000830184610cc8565b92915050565b7f4e487b7100000000000000000000000000000000000000000000000000000000600052601160045260246000fd5b6000610d2c82610940565b91507fffffffffffffffffffffffffffffffffffffffffffffffffffffffffffffffff8203610d5e57610d5d610cf2565b5b600182019050919050565b600082825260208201905092915050565b7f566f74696e67206973206e6f74206f70656e0000000000000000000000000000600082015250565b6000610db0601283610d69565b9150610dbb82610d7a565b602082019050919050565b60006020820190508181036000830152610ddf81610da3565b9050919050565b7f416c726561647920766f74656400000000000000000000000000000000000000600082015250565b6000610e1c600d83610d69565b9150610e2782610de6565b602082019050919050565b60006020820190508181036000830152610e4b81610e0f565b9050919050565b7f546f6f206d616e792063686f696365732073656c656374656400000000000000600082015250565b6000610e88601983610d69565b9150610e9382610e52565b602082019050919050565b60006020820190508181036000830152610eb781610e7b565b9050919050565b7f4e487b7100000000000000000000000000000000000000000000000000000000600052603260045260246000fd5b7f496e76616c6964206f7074696f6e2073656c6563746564000000000000000000600082015250565b6000610f23601783610d69565b9150610f2e82610eed565b602082019050919050565b60006020820190508181036000830152610f5281610f16565b9050919050565b600081519050919050565b600082825260208201905092915050565b6000819050602082019050919050565b610f8e81610940565b82525050565b6000610fa08383610f85565b60208301905092915050565b6000602082019050919050565b6000610fc482610f59565b610fce8185610f64565b9350610fd983610f75565b8060005b8381101561100a578151610ff18882610f94565b9750610ffc83610fac565b925050600181019050610fdd565b5085935050505092915050565b600060408201905061102c6000830185610cc8565b818103602083015261103e8184610fb9565b9050939250505056fea26469706673582212205af70560d2484c3aa3708e1019095ff445ca08d0a3e6ae745bffa989d401a65464736f6c634300080d0033",
  "immutableReferences": {},
  "source": "// SPDX-License-Identifier: MIT\n\npragma solidity >=0.4.22 <0.9.0;\n\ncontract uVote {\n\n    struct Vote {\n        mapping(uint256 => uint256) optionCounts; // Counts votes for each option\n    }\n\n    struct Ballot {\n        mapping(address => bool) hasVoted; // Tracks if an address has voted\n        Vote count; // Vote counts for this ballot\n        bool votingOpen; // Indicates if the voting is open\n        uint256[] options; // Array of option IDs\n        uint256 maxChoices; // Maximum number of choices allowed per vote\n    }\n\n    mapping(uint256 => Ballot) private ballots;\n    uint256 public nextBallotId;\n\n    event VoteStarted(uint256 ballotId);\n    event Voted(address indexed voter, uint256 ballotId, uint256[] selectedOptions);\n    event VoteEnded(uint256 ballotId, uint256[] optionCounts);\n\n    function isVotingOpen(uint256 ballotId) public view returns (bool) {\n        return ballots[ballotId].votingOpen;\n    }\n\n    function getMaxChoices(uint256 ballotId) public view returns (uint256) {\n        return ballots[ballotId].maxChoices;\n    }\n\n    function getOptionCount(uint256 ballotId, uint256 option) public view returns (uint256) {\n        return ballots[ballotId].count.optionCounts[option];\n    }\n\n    function hasVoted(uint256 ballotId, address voter) public view returns (bool) {\n        return ballots[ballotId].hasVoted[voter];\n    }\n\n    function startVote(uint256[] memory _options, uint256 _maxChoices) public {\n        uint256 ballotId = nextBallotId++;\n        ballots[ballotId].votingOpen = true;\n        ballots[ballotId].options = _options;\n        ballots[ballotId].maxChoices = _maxChoices;\n        emit VoteStarted(ballotId);\n    }\n\n    function castVote(uint256 ballotId, uint256[] memory selectedOptions) public {\n        require(ballots[ballotId].votingOpen, \"Voting is not open\");\n        require(!ballots[ballotId].hasVoted[msg.sender], \"Already voted\");\n        require(selectedOptions.length <= ballots[ballotId].maxChoices, \"Too many choices selected\");\n\n        Ballot storage ballot = ballots[ballotId];\n        for (uint256 i = 0; i < selectedOptions.length; i++) {\n            uint256 option = selectedOptions[i];\n            require(isValidOption(option, ballot.options), \"Invalid option selected\");\n            ballot.count.optionCounts[option]++;\n        }\n\n        ballots[ballotId].hasVoted[msg.sender] = true;\n        emit Voted(msg.sender, ballotId, selectedOptions);\n    }\n\n    function tallyVotes(uint256 ballotId) public {\n        require(ballots[ballotId].votingOpen, \"Voting is not open\");\n        ballots[ballotId].votingOpen = false;\n\n        Ballot storage ballot = ballots[ballotId];\n        uint256[] memory counts = new uint256[](ballot.options.length);\n        for (uint256 i = 0; i < ballot.options.length; i++) {\n            counts[i] = ballot.count.optionCounts[ballot.options[i]];\n        }\n\n        emit VoteEnded(ballotId, counts);\n    }\n\n    function isValidOption(uint256 option, uint256[] memory options) private pure returns (bool) {\n        for (uint256 i = 0; i < options.length; i++) {\n            if (options[i] == option) {\n                return true;\n            }\n        }\n        return false;\n    }\n}\n",
  "sourcePath": "/Users/duenng/Documents/GitHub/csci2730_project_fall_2023/uVote/contracts/uVote.sol",
  "compiler": {
    "name": "solc",
    "version": "0.8.13+commit.abaa5c0e.Emscripten.clang"
  },
  "schemaVersion": "3.4.16",
  "updatedAt": "2023-12-07T22:15:44.971Z",
  "networkType": "ethereum",
  "devdoc": {
    "kind": "dev",
    "methods": {},
    "version": 1
  },
  "userdoc": {
    "kind": "user",
    "methods": {},
    "version": 1
  }
}