{
  "contractName": "uVote",
  "abi": [
    {
      "inputs": [],
      "stateMutability": "nonpayable",
      "type": "constructor"
    },
    {
      "anonymous": false,
      "inputs": [
        {
          "indexed": true,
          "internalType": "bytes32",
          "name": "role",
          "type": "bytes32"
        },
        {
          "indexed": true,
          "internalType": "bytes32",
          "name": "previousAdminRole",
          "type": "bytes32"
        },
        {
          "indexed": true,
          "internalType": "bytes32",
          "name": "newAdminRole",
          "type": "bytes32"
        }
      ],
      "name": "RoleAdminChanged",
      "type": "event"
    },
    {
      "anonymous": false,
      "inputs": [
        {
          "indexed": true,
          "internalType": "bytes32",
          "name": "role",
          "type": "bytes32"
        },
        {
          "indexed": true,
          "internalType": "address",
          "name": "account",
          "type": "address"
        },
        {
          "indexed": true,
          "internalType": "address",
          "name": "sender",
          "type": "address"
        }
      ],
      "name": "RoleGranted",
      "type": "event"
    },
    {
      "anonymous": false,
      "inputs": [
        {
          "indexed": true,
          "internalType": "bytes32",
          "name": "role",
          "type": "bytes32"
        },
        {
          "indexed": true,
          "internalType": "address",
          "name": "account",
          "type": "address"
        },
        {
          "indexed": true,
          "internalType": "address",
          "name": "sender",
          "type": "address"
        }
      ],
      "name": "RoleRevoked",
      "type": "event"
    },
    {
      "anonymous": false,
      "inputs": [
        {
          "indexed": false,
          "internalType": "uint256",
          "name": "ballotId",
          "type": "uint256"
        },
        {
          "indexed": false,
          "internalType": "uint256[]",
          "name": "optionCounts",
          "type": "uint256[]"
        }
      ],
      "name": "VoteEnded",
      "type": "event"
    },
    {
      "anonymous": false,
      "inputs": [
        {
          "indexed": false,
          "internalType": "uint256",
          "name": "ballotId",
          "type": "uint256"
        }
      ],
      "name": "VoteStarted",
      "type": "event"
    },
    {
      "anonymous": false,
      "inputs": [
        {
          "indexed": true,
          "internalType": "address",
          "name": "voter",
          "type": "address"
        },
        {
          "indexed": false,
          "internalType": "uint256",
          "name": "ballotId",
          "type": "uint256"
        },
        {
          "indexed": false,
          "internalType": "uint256[]",
          "name": "selectedOptions",
          "type": "uint256[]"
        }
      ],
      "name": "Voted",
      "type": "event"
    },
    {
      "inputs": [],
      "name": "ADMIN_ROLE",
      "outputs": [
        {
          "internalType": "bytes32",
          "name": "",
          "type": "bytes32"
        }
      ],
      "stateMutability": "view",
      "type": "function",
      "constant": true
    },
    {
      "inputs": [],
      "name": "DEFAULT_ADMIN_ROLE",
      "outputs": [
        {
          "internalType": "bytes32",
          "name": "",
          "type": "bytes32"
        }
      ],
      "stateMutability": "view",
      "type": "function",
      "constant": true
    },
    {
      "inputs": [
        {
          "internalType": "bytes32",
          "name": "role",
          "type": "bytes32"
        }
      ],
      "name": "getRoleAdmin",
      "outputs": [
        {
          "internalType": "bytes32",
          "name": "",
          "type": "bytes32"
        }
      ],
      "stateMutability": "view",
      "type": "function",
      "constant": true
    },
    {
      "inputs": [
        {
          "internalType": "bytes32",
          "name": "role",
          "type": "bytes32"
        },
        {
          "internalType": "address",
          "name": "account",
          "type": "address"
        }
      ],
      "name": "grantRole",
      "outputs": [],
      "stateMutability": "nonpayable",
      "type": "function"
    },
    {
      "inputs": [
        {
          "internalType": "bytes32",
          "name": "role",
          "type": "bytes32"
        },
        {
          "internalType": "address",
          "name": "account",
          "type": "address"
        }
      ],
      "name": "hasRole",
      "outputs": [
        {
          "internalType": "bool",
          "name": "",
          "type": "bool"
        }
      ],
      "stateMutability": "view",
      "type": "function",
      "constant": true
    },
    {
      "inputs": [],
      "name": "nextBallotId",
      "outputs": [
        {
          "internalType": "uint256",
          "name": "",
          "type": "uint256"
        }
      ],
      "stateMutability": "view",
      "type": "function",
      "constant": true
    },
    {
      "inputs": [
        {
          "internalType": "bytes32",
          "name": "role",
          "type": "bytes32"
        },
        {
          "internalType": "address",
          "name": "account",
          "type": "address"
        }
      ],
      "name": "renounceRole",
      "outputs": [],
      "stateMutability": "nonpayable",
      "type": "function"
    },
    {
      "inputs": [
        {
          "internalType": "bytes32",
          "name": "role",
          "type": "bytes32"
        },
        {
          "internalType": "address",
          "name": "account",
          "type": "address"
        }
      ],
      "name": "revokeRole",
      "outputs": [],
      "stateMutability": "nonpayable",
      "type": "function"
    },
    {
      "inputs": [
        {
          "internalType": "bytes4",
          "name": "interfaceId",
          "type": "bytes4"
        }
      ],
      "name": "supportsInterface",
      "outputs": [
        {
          "internalType": "bool",
          "name": "",
          "type": "bool"
        }
      ],
      "stateMutability": "view",
      "type": "function",
      "constant": true
    },
    {
      "inputs": [
        {
          "internalType": "uint256",
          "name": "ballotId",
          "type": "uint256"
        }
      ],
      "name": "isVotingOpen",
      "outputs": [
        {
          "internalType": "bool",
          "name": "",
          "type": "bool"
        }
      ],
      "stateMutability": "view",
      "type": "function",
      "constant": true
    },
    {
      "inputs": [
        {
          "internalType": "uint256",
          "name": "ballotId",
          "type": "uint256"
        }
      ],
      "name": "getMaxChoices",
      "outputs": [
        {
          "internalType": "uint256",
          "name": "",
          "type": "uint256"
        }
      ],
      "stateMutability": "view",
      "type": "function",
      "constant": true
    },
    {
      "inputs": [
        {
          "internalType": "uint256",
          "name": "ballotId",
          "type": "uint256"
        },
        {
          "internalType": "uint256",
          "name": "option",
          "type": "uint256"
        }
      ],
      "name": "getOptionCount",
      "outputs": [
        {
          "internalType": "uint256",
          "name": "",
          "type": "uint256"
        }
      ],
      "stateMutability": "view",
      "type": "function",
      "constant": true
    },
    {
      "inputs": [
        {
          "internalType": "uint256",
          "name": "ballotId",
          "type": "uint256"
        },
        {
          "internalType": "address",
          "name": "voter",
          "type": "address"
        }
      ],
      "name": "hasVoted",
      "outputs": [
        {
          "internalType": "bool",
          "name": "",
          "type": "bool"
        }
      ],
      "stateMutability": "view",
      "type": "function",
      "constant": true
    },
    {
      "inputs": [
        {
          "internalType": "uint256[]",
          "name": "_options",
          "type": "uint256[]"
        },
        {
          "internalType": "uint256",
          "name": "_maxChoices",
          "type": "uint256"
        }
      ],
      "name": "startVote",
      "outputs": [],
      "stateMutability": "nonpayable",
      "type": "function"
    },
    {
      "inputs": [
        {
          "internalType": "uint256",
          "name": "ballotId",
          "type": "uint256"
        },
        {
          "internalType": "uint256[]",
          "name": "selectedOptions",
          "type": "uint256[]"
        }
      ],
      "name": "castVote",
      "outputs": [],
      "stateMutability": "nonpayable",
      "type": "function"
    },
    {
      "inputs": [
        {
          "internalType": "uint256",
          "name": "ballotId",
          "type": "uint256"
        }
      ],
      "name": "tallyVotes",
      "outputs": [],
      "stateMutability": "nonpayable",
      "type": "function"
    }
  ],
  "bytecode": "0x60806040523480156200001157600080fd5b50620000447fa49807205ce4d355092ef5a8a18f56e8913cf4a201fbe287825b095693c21775336200004a60201b60201c565b620001c3565b6200005c82826200006060201b60201c565b5050565b6200007282826200015160201b60201c565b6200014d57600160008084815260200190815260200160002060000160008373ffffffffffffffffffffffffffffffffffffffff1673ffffffffffffffffffffffffffffffffffffffff16815260200190815260200160002060006101000a81548160ff021916908315150217905550620000f2620001bb60201b60201c565b73ffffffffffffffffffffffffffffffffffffffff168173ffffffffffffffffffffffffffffffffffffffff16837f2f8788117e7eff1d82e926ec794901d17c78024a50270940304540a733656f0d60405160405180910390a45b5050565b600080600084815260200190815260200160002060000160008373ffffffffffffffffffffffffffffffffffffffff1673ffffffffffffffffffffffffffffffffffffffff16815260200190815260200160002060009054906101000a900460ff16905092915050565b600033905090565b611e7080620001d36000396000f3fe608060405234801561001057600080fd5b50600436106101005760003560e01c80634d318b0e1161009757806391d148541161006657806391d14854146102cf578063a217fddf146102ff578063d547741f1461031d578063dc6bfbb51461033957610100565b80634d318b0e146102355780636aea03441461025157806375b238fc1461028157806382c9318c1461029f57610100565b80632f2ff15d116100d35780632f2ff15d146101b15780632fa48e9e146101cd57806336568abe146101e9578063438596321461020557610100565b806301ffc9a714610105578063074dbaa614610135578063248a9ca314610165578063286ee10014610195575b600080fd5b61011f600480360381019061011a91906112bb565b610357565b60405161012c9190611303565b60405180910390f35b61014f600480360381019061014a9190611354565b6103d1565b60405161015c9190611303565b60405180910390f35b61017f600480360381019061017a91906113b7565b6103fe565b60405161018c91906113f3565b60405180910390f35b6101af60048036038101906101aa9190611567565b61041d565b005b6101cb60048036038101906101c69190611621565b610513565b005b6101e760048036038101906101e29190611661565b610534565b005b61020360048036038101906101fe9190611621565b610872565b005b61021f600480360381019061021a91906116bd565b6108f5565b60405161022c9190611303565b60405180910390f35b61024f600480360381019061024a9190611354565b610960565b005b61026b600480360381019061026691906116fd565b610b44565b604051610278919061174c565b60405180910390f35b610289610b79565b60405161029691906113f3565b60405180910390f35b6102b960048036038101906102b49190611354565b610b9d565b6040516102c6919061174c565b60405180910390f35b6102e960048036038101906102e49190611621565b610bbd565b6040516102f69190611303565b60405180910390f35b610307610c27565b60405161031491906113f3565b60405180910390f35b61033760048036038101906103329190611621565b610c2e565b005b610341610c4f565b60405161034e919061174c565b60405180910390f35b60007f7965db0b000000000000000000000000000000000000000000000000000000007bffffffffffffffffffffffffffffffffffffffffffffffffffffffff1916827bffffffffffffffffffffffffffffffffffffffffffffffffffffffff191614806103ca57506103c982610c55565b5b9050919050565b60006001600083815260200190815260200160002060020160009054906101000a900460ff169050919050565b6000806000838152602001908152602001600020600101549050919050565b7fa49807205ce4d355092ef5a8a18f56e8913cf4a201fbe287825b095693c2177561044781610cbf565b60006002600081548092919061045c90611796565b919050559050600180600083815260200190815260200160002060020160006101000a81548160ff021916908315150217905550836001600083815260200190815260200160002060030190805190602001906104ba9291906111e5565b508260016000838152602001908152602001600020600401819055507fa80808a30283fc2c95db95a081ef4462dd38bb7854e6569e34c0b501eed90f4e81604051610505919061174c565b60405180910390a150505050565b61051c826103fe565b61052581610cbf565b61052f8383610cd3565b505050565b6001600083815260200190815260200160002060020160009054906101000a900460ff16610597576040517f08c379a000000000000000000000000000000000000000000000000000000000815260040161058e9061183b565b60405180910390fd5b6001600083815260200190815260200160002060000160003373ffffffffffffffffffffffffffffffffffffffff1673ffffffffffffffffffffffffffffffffffffffff16815260200190815260200160002060009054906101000a900460ff1615610638576040517f08c379a000000000000000000000000000000000000000000000000000000000815260040161062f906118a7565b60405180910390fd5b600160008381526020019081526020016000206004015481511115610692576040517f08c379a000000000000000000000000000000000000000000000000000000000815260040161068990611913565b60405180910390fd5b600060016000848152602001908152602001600020905060005b82518110156107b15760008382815181106106ca576106c9611933565b5b60200260200101519050610730818460030180548060200260200160405190810160405280929190818152602001828054801561072657602002820191906000526020600020905b815481526020019060010190808311610712575b5050505050610db3565b61076f576040517f08c379a0000000000000000000000000000000000000000000000000000000008152600401610766906119ae565b60405180910390fd5b826001016000016000828152602001908152602001600020600081548092919061079890611796565b91905055505080806107a990611796565b9150506106ac565b50600180600085815260200190815260200160002060000160003373ffffffffffffffffffffffffffffffffffffffff1673ffffffffffffffffffffffffffffffffffffffff16815260200190815260200160002060006101000a81548160ff0219169083151502179055503373ffffffffffffffffffffffffffffffffffffffff167f871b62f932d6ef8afa59aed962334ae3a32efd388f7ec8932a67b7e47ae7795a8484604051610865929190611a8c565b60405180910390a2505050565b61087a610e0e565b73ffffffffffffffffffffffffffffffffffffffff168173ffffffffffffffffffffffffffffffffffffffff16146108e7576040517f08c379a00000000000000000000000000000000000000000000000000000000081526004016108de90611b2e565b60405180910390fd5b6108f18282610e16565b5050565b60006001600084815260200190815260200160002060000160008373ffffffffffffffffffffffffffffffffffffffff1673ffffffffffffffffffffffffffffffffffffffff16815260200190815260200160002060009054906101000a900460ff16905092915050565b7fa49807205ce4d355092ef5a8a18f56e8913cf4a201fbe287825b095693c2177561098a81610cbf565b6001600083815260200190815260200160002060020160009054906101000a900460ff166109ed576040517f08c379a00000000000000000000000000000000000000000000000000000000081526004016109e49061183b565b60405180910390fd5b60006001600084815260200190815260200160002060020160006101000a81548160ff02191690831515021790555060006001600084815260200190815260200160002090506000816003018054905067ffffffffffffffff811115610a5657610a55611424565b5b604051908082528060200260200182016040528015610a845781602001602082028036833780820191505090505b50905060005b8260030180549050811015610b0457826001016000016000846003018381548110610ab857610ab7611933565b5b9060005260206000200154815260200190815260200160002054828281518110610ae557610ae4611933565b5b6020026020010181815250508080610afc90611796565b915050610a8a565b507fa6f327f4e4d609a399484d257d812554d138a7c4546183a067aae0a49b5ef5ec8482604051610b36929190611a8c565b60405180910390a150505050565b600060016000848152602001908152602001600020600101600001600083815260200190815260200160002054905092915050565b7fa49807205ce4d355092ef5a8a18f56e8913cf4a201fbe287825b095693c2177581565b600060016000838152602001908152602001600020600401549050919050565b600080600084815260200190815260200160002060000160008373ffffffffffffffffffffffffffffffffffffffff1673ffffffffffffffffffffffffffffffffffffffff16815260200190815260200160002060009054906101000a900460ff16905092915050565b6000801b81565b610c37826103fe565b610c4081610cbf565b610c4a8383610e16565b505050565b60025481565b60007f01ffc9a7000000000000000000000000000000000000000000000000000000007bffffffffffffffffffffffffffffffffffffffffffffffffffffffff1916827bffffffffffffffffffffffffffffffffffffffffffffffffffffffff1916149050919050565b610cd081610ccb610e0e565b610ef7565b50565b610cdd8282610bbd565b610daf57600160008084815260200190815260200160002060000160008373ffffffffffffffffffffffffffffffffffffffff1673ffffffffffffffffffffffffffffffffffffffff16815260200190815260200160002060006101000a81548160ff021916908315150217905550610d54610e0e565b73ffffffffffffffffffffffffffffffffffffffff168173ffffffffffffffffffffffffffffffffffffffff16837f2f8788117e7eff1d82e926ec794901d17c78024a50270940304540a733656f0d60405160405180910390a45b5050565b600080600090505b8251811015610e025783838281518110610dd857610dd7611933565b5b602002602001015103610def576001915050610e08565b8080610dfa90611796565b915050610dbb565b50600090505b92915050565b600033905090565b610e208282610bbd565b15610ef357600080600084815260200190815260200160002060000160008373ffffffffffffffffffffffffffffffffffffffff1673ffffffffffffffffffffffffffffffffffffffff16815260200190815260200160002060006101000a81548160ff021916908315150217905550610e98610e0e565b73ffffffffffffffffffffffffffffffffffffffff168173ffffffffffffffffffffffffffffffffffffffff16837ff6391f5c32d9c69d2a47ea670b442974b53935d1edc7fd64eb21e047a839171b60405160405180910390a45b5050565b610f018282610bbd565b610f7857610f0e81610f7c565b610f1c8360001c6020610fa9565b604051602001610f2d929190611c60565b6040516020818303038152906040526040517f08c379a0000000000000000000000000000000000000000000000000000000008152600401610f6f9190611cd3565b60405180910390fd5b5050565b6060610fa28273ffffffffffffffffffffffffffffffffffffffff16601460ff16610fa9565b9050919050565b606060006002836002610fbc9190611cf5565b610fc69190611d4f565b67ffffffffffffffff811115610fdf57610fde611424565b5b6040519080825280601f01601f1916602001820160405280156110115781602001600182028036833780820191505090505b5090507f30000000000000000000000000000000000000000000000000000000000000008160008151811061104957611048611933565b5b60200101907effffffffffffffffffffffffffffffffffffffffffffffffffffffffffffff1916908160001a9053507f7800000000000000000000000000000000000000000000000000000000000000816001815181106110ad576110ac611933565b5b60200101907effffffffffffffffffffffffffffffffffffffffffffffffffffffffffffff1916908160001a905350600060018460026110ed9190611cf5565b6110f79190611d4f565b90505b6001811115611197577f3031323334353637383961626364656600000000000000000000000000000000600f86166010811061113957611138611933565b5b1a60f81b8282815181106111505761114f611933565b5b60200101907effffffffffffffffffffffffffffffffffffffffffffffffffffffffffffff1916908160001a905350600485901c94508061119090611da5565b90506110fa565b50600084146111db576040517f08c379a00000000000000000000000000000000000000000000000000000000081526004016111d290611e1a565b60405180910390fd5b8091505092915050565b828054828255906000526020600020908101928215611221579160200282015b82811115611220578251825591602001919060010190611205565b5b50905061122e9190611232565b5090565b5b8082111561124b576000816000905550600101611233565b5090565b6000604051905090565b600080fd5b600080fd5b60007fffffffff0000000000000000000000000000000000000000000000000000000082169050919050565b61129881611263565b81146112a357600080fd5b50565b6000813590506112b58161128f565b92915050565b6000602082840312156112d1576112d0611259565b5b60006112df848285016112a6565b91505092915050565b60008115159050919050565b6112fd816112e8565b82525050565b600060208201905061131860008301846112f4565b92915050565b6000819050919050565b6113318161131e565b811461133c57600080fd5b50565b60008135905061134e81611328565b92915050565b60006020828403121561136a57611369611259565b5b60006113788482850161133f565b91505092915050565b6000819050919050565b61139481611381565b811461139f57600080fd5b50565b6000813590506113b18161138b565b92915050565b6000602082840312156113cd576113cc611259565b5b60006113db848285016113a2565b91505092915050565b6113ed81611381565b82525050565b600060208201905061140860008301846113e4565b92915050565b600080fd5b6000601f19601f8301169050919050565b7f4e487b7100000000000000000000000000000000000000000000000000000000600052604160045260246000fd5b61145c82611413565b810181811067ffffffffffffffff8211171561147b5761147a611424565b5b80604052505050565b600061148e61124f565b905061149a8282611453565b919050565b600067ffffffffffffffff8211156114ba576114b9611424565b5b602082029050602081019050919050565b600080fd5b60006114e36114de8461149f565b611484565b90508083825260208201905060208402830185811115611506576115056114cb565b5b835b8181101561152f578061151b888261133f565b845260208401935050602081019050611508565b5050509392505050565b600082601f83011261154e5761154d61140e565b5b813561155e8482602086016114d0565b91505092915050565b6000806040838503121561157e5761157d611259565b5b600083013567ffffffffffffffff81111561159c5761159b61125e565b5b6115a885828601611539565b92505060206115b98582860161133f565b9150509250929050565b600073ffffffffffffffffffffffffffffffffffffffff82169050919050565b60006115ee826115c3565b9050919050565b6115fe816115e3565b811461160957600080fd5b50565b60008135905061161b816115f5565b92915050565b6000806040838503121561163857611637611259565b5b6000611646858286016113a2565b92505060206116578582860161160c565b9150509250929050565b6000806040838503121561167857611677611259565b5b60006116868582860161133f565b925050602083013567ffffffffffffffff8111156116a7576116a661125e565b5b6116b385828601611539565b9150509250929050565b600080604083850312156116d4576116d3611259565b5b60006116e28582860161133f565b92505060206116f38582860161160c565b9150509250929050565b6000806040838503121561171457611713611259565b5b60006117228582860161133f565b92505060206117338582860161133f565b9150509250929050565b6117468161131e565b82525050565b6000602082019050611761600083018461173d565b92915050565b7f4e487b7100000000000000000000000000000000000000000000000000000000600052601160045260246000fd5b60006117a18261131e565b91507fffffffffffffffffffffffffffffffffffffffffffffffffffffffffffffffff82036117d3576117d2611767565b5b600182019050919050565b600082825260208201905092915050565b7f566f74696e67206973206e6f74206f70656e0000000000000000000000000000600082015250565b60006118256012836117de565b9150611830826117ef565b602082019050919050565b6000602082019050818103600083015261185481611818565b9050919050565b7f416c726561647920766f74656400000000000000000000000000000000000000600082015250565b6000611891600d836117de565b915061189c8261185b565b602082019050919050565b600060208201905081810360008301526118c081611884565b9050919050565b7f546f6f206d616e792063686f696365732073656c656374656400000000000000600082015250565b60006118fd6019836117de565b9150611908826118c7565b602082019050919050565b6000602082019050818103600083015261192c816118f0565b9050919050565b7f4e487b7100000000000000000000000000000000000000000000000000000000600052603260045260246000fd5b7f496e76616c6964206f7074696f6e2073656c6563746564000000000000000000600082015250565b60006119986017836117de565b91506119a382611962565b602082019050919050565b600060208201905081810360008301526119c78161198b565b9050919050565b600081519050919050565b600082825260208201905092915050565b6000819050602082019050919050565b611a038161131e565b82525050565b6000611a1583836119fa565b60208301905092915050565b6000602082019050919050565b6000611a39826119ce565b611a4381856119d9565b9350611a4e836119ea565b8060005b83811015611a7f578151611a668882611a09565b9750611a7183611a21565b925050600181019050611a52565b5085935050505092915050565b6000604082019050611aa1600083018561173d565b8181036020830152611ab38184611a2e565b90509392505050565b7f416363657373436f6e74726f6c3a2063616e206f6e6c792072656e6f756e636560008201527f20726f6c657320666f722073656c660000000000000000000000000000000000602082015250565b6000611b18602f836117de565b9150611b2382611abc565b604082019050919050565b60006020820190508181036000830152611b4781611b0b565b9050919050565b600081905092915050565b7f416363657373436f6e74726f6c3a206163636f756e7420000000000000000000600082015250565b6000611b8f601783611b4e565b9150611b9a82611b59565b601782019050919050565b600081519050919050565b60005b83811015611bce578082015181840152602081019050611bb3565b83811115611bdd576000848401525b50505050565b6000611bee82611ba5565b611bf88185611b4e565b9350611c08818560208601611bb0565b80840191505092915050565b7f206973206d697373696e6720726f6c6520000000000000000000000000000000600082015250565b6000611c4a601183611b4e565b9150611c5582611c14565b601182019050919050565b6000611c6b82611b82565b9150611c778285611be3565b9150611c8282611c3d565b9150611c8e8284611be3565b91508190509392505050565b6000611ca582611ba5565b611caf81856117de565b9350611cbf818560208601611bb0565b611cc881611413565b840191505092915050565b60006020820190508181036000830152611ced8184611c9a565b905092915050565b6000611d008261131e565b9150611d0b8361131e565b9250817fffffffffffffffffffffffffffffffffffffffffffffffffffffffffffffffff0483118215151615611d4457611d43611767565b5b828202905092915050565b6000611d5a8261131e565b9150611d658361131e565b9250827fffffffffffffffffffffffffffffffffffffffffffffffffffffffffffffffff03821115611d9a57611d99611767565b5b828201905092915050565b6000611db08261131e565b915060008203611dc357611dc2611767565b5b600182039050919050565b7f537472696e67733a20686578206c656e67746820696e73756666696369656e74600082015250565b6000611e046020836117de565b9150611e0f82611dce565b602082019050919050565b60006020820190508181036000830152611e3381611df7565b905091905056fea2646970667358221220c145d04b7d75d4a1f8a801f9810ac2d6d9db4773179daf0059fe4ca37cc63e9764736f6c634300080d0033",
  "immutableReferences": {},
  "source": "// SPDX-License-Identifier: MIT\npragma solidity >=0.4.22 <0.9.0;\n\nimport \"@openzeppelin/contracts/access/AccessControl.sol\";\n\ncontract uVote is AccessControl {\n    bytes32 public constant ADMIN_ROLE = keccak256(\"ADMIN_ROLE\");\n\n    struct Vote {\n        mapping(uint256 => uint256) optionCounts; // Counts votes for each option\n    }\n\n    struct Ballot {\n        mapping(address => bool) hasVoted; // Tracks if an address has voted\n        Vote count; // Vote counts for this ballot\n        bool votingOpen; // Indicates if the voting is open\n        uint256[] options; // Array of option IDs\n        uint256 maxChoices; // Maximum number of choices allowed per vote\n    }\n\n    mapping(uint256 => Ballot) private ballots;\n    uint256 public nextBallotId;\n\n    event VoteStarted(uint256 ballotId);\n    event Voted(address indexed voter, uint256 ballotId, uint256[] selectedOptions);\n    event VoteEnded(uint256 ballotId, uint256[] optionCounts);\n\n    constructor() {\n        _setupRole(ADMIN_ROLE, msg.sender);\n    }\n\n    function isVotingOpen(uint256 ballotId) public view returns (bool) {\n        return ballots[ballotId].votingOpen;\n    }\n\n    function getMaxChoices(uint256 ballotId) public view returns (uint256) {\n        return ballots[ballotId].maxChoices;\n    }\n\n    function getOptionCount(uint256 ballotId, uint256 option) public view returns (uint256) {\n        return ballots[ballotId].count.optionCounts[option];\n    }\n\n    function hasVoted(uint256 ballotId, address voter) public view returns (bool) {\n        return ballots[ballotId].hasVoted[voter];\n    }\n\n    function startVote(uint256[] memory _options, uint256 _maxChoices) public onlyRole(ADMIN_ROLE) {\n        uint256 ballotId = nextBallotId++;\n        ballots[ballotId].votingOpen = true;\n        ballots[ballotId].options = _options;\n        ballots[ballotId].maxChoices = _maxChoices;\n        emit VoteStarted(ballotId);\n    }\n\n    function castVote(uint256 ballotId, uint256[] memory selectedOptions) public {\n        require(ballots[ballotId].votingOpen, \"Voting is not open\");\n        require(!ballots[ballotId].hasVoted[msg.sender], \"Already voted\");\n        require(selectedOptions.length <= ballots[ballotId].maxChoices, \"Too many choices selected\");\n\n        Ballot storage ballot = ballots[ballotId];\n        for (uint256 i = 0; i < selectedOptions.length; i++) {\n            uint256 option = selectedOptions[i];\n            require(isValidOption(option, ballot.options), \"Invalid option selected\");\n            ballot.count.optionCounts[option]++;\n        }\n\n        ballots[ballotId].hasVoted[msg.sender] = true;\n        emit Voted(msg.sender, ballotId, selectedOptions);\n    }\n\n    function tallyVotes(uint256 ballotId) public onlyRole(ADMIN_ROLE) {\n        require(ballots[ballotId].votingOpen, \"Voting is not open\");\n        ballots[ballotId].votingOpen = false;\n\n        Ballot storage ballot = ballots[ballotId];\n        uint256[] memory counts = new uint256[](ballot.options.length);\n        for (uint256 i = 0; i < ballot.options.length; i++) {\n            counts[i] = ballot.count.optionCounts[ballot.options[i]];\n        }\n\n        emit VoteEnded(ballotId, counts);\n    }\n\n    function isValidOption(uint256 option, uint256[] memory options) private pure returns (bool) {\n        for (uint256 i = 0; i < options.length; i++) {\n            if (options[i] == option) {\n                return true;\n            }\n        }\n        return false;\n    }\n}\n",
  "sourcePath": "/Users/duenng/Documents/GitHub/csci2730_project_fall_2023/uVote/contracts/uVote.sol",
  "compiler": {
    "name": "solc",
    "version": "0.8.13+commit.abaa5c0e.Emscripten.clang"
  },
  "schemaVersion": "3.4.16",
  "updatedAt": "2023-12-08T11:02:40.022Z",
  "networkType": "ethereum",
  "devdoc": {
    "kind": "dev",
    "methods": {
      "getRoleAdmin(bytes32)": {
        "details": "Returns the admin role that controls `role`. See {grantRole} and {revokeRole}. To change a role's admin, use {_setRoleAdmin}."
      },
      "grantRole(bytes32,address)": {
        "details": "Grants `role` to `account`. If `account` had not been already granted `role`, emits a {RoleGranted} event. Requirements: - the caller must have ``role``'s admin role. May emit a {RoleGranted} event."
      },
      "hasRole(bytes32,address)": {
        "details": "Returns `true` if `account` has been granted `role`."
      },
      "renounceRole(bytes32,address)": {
        "details": "Revokes `role` from the calling account. Roles are often managed via {grantRole} and {revokeRole}: this function's purpose is to provide a mechanism for accounts to lose their privileges if they are compromised (such as when a trusted device is misplaced). If the calling account had been revoked `role`, emits a {RoleRevoked} event. Requirements: - the caller must be `account`. May emit a {RoleRevoked} event."
      },
      "revokeRole(bytes32,address)": {
        "details": "Revokes `role` from `account`. If `account` had been granted `role`, emits a {RoleRevoked} event. Requirements: - the caller must have ``role``'s admin role. May emit a {RoleRevoked} event."
      },
      "supportsInterface(bytes4)": {
        "details": "See {IERC165-supportsInterface}."
      }
    },
    "version": 1
  },
  "userdoc": {
    "kind": "user",
    "methods": {},
    "version": 1
  }
}