{
  "contractName": "uVote",
  "abi": [
    {
      "anonymous": false,
      "inputs": [
        {
          "indexed": false,
          "internalType": "uint256",
          "name": "ballotId",
          "type": "uint256"
        },
        {
          "indexed": false,
          "internalType": "uint256[]",
          "name": "optionCounts",
          "type": "uint256[]"
        }
      ],
      "name": "VoteEnded",
      "type": "event"
    },
    {
      "anonymous": false,
      "inputs": [
        {
          "indexed": false,
          "internalType": "uint256",
          "name": "ballotId",
          "type": "uint256"
        }
      ],
      "name": "VoteStarted",
      "type": "event"
    },
    {
      "anonymous": false,
      "inputs": [
        {
          "indexed": true,
          "internalType": "address",
          "name": "voter",
          "type": "address"
        },
        {
          "indexed": false,
          "internalType": "uint256",
          "name": "ballotId",
          "type": "uint256"
        },
        {
          "indexed": false,
          "internalType": "uint256[]",
          "name": "selectedOptions",
          "type": "uint256[]"
        }
      ],
      "name": "Voted",
      "type": "event"
    },
    {
      "inputs": [],
      "name": "nextBallotId",
      "outputs": [
        {
          "internalType": "uint256",
          "name": "",
          "type": "uint256"
        }
      ],
      "stateMutability": "view",
      "type": "function",
      "constant": true
    },
    {
      "inputs": [
        {
          "internalType": "uint256",
          "name": "ballotId",
          "type": "uint256"
        }
      ],
      "name": "isVotingOpen",
      "outputs": [
        {
          "internalType": "bool",
          "name": "",
          "type": "bool"
        }
      ],
      "stateMutability": "view",
      "type": "function",
      "constant": true
    },
    {
      "inputs": [
        {
          "internalType": "uint256",
          "name": "ballotId",
          "type": "uint256"
        }
      ],
      "name": "getMaxChoices",
      "outputs": [
        {
          "internalType": "uint256",
          "name": "",
          "type": "uint256"
        }
      ],
      "stateMutability": "view",
      "type": "function",
      "constant": true
    },
    {
      "inputs": [
        {
          "internalType": "uint256",
          "name": "ballotId",
          "type": "uint256"
        },
        {
          "internalType": "uint256",
          "name": "option",
          "type": "uint256"
        }
      ],
      "name": "getOptionCount",
      "outputs": [
        {
          "internalType": "uint256",
          "name": "",
          "type": "uint256"
        }
      ],
      "stateMutability": "view",
      "type": "function",
      "constant": true
    },
    {
      "inputs": [
        {
          "internalType": "uint256",
          "name": "ballotId",
          "type": "uint256"
        },
        {
          "internalType": "address",
          "name": "voter",
          "type": "address"
        }
      ],
      "name": "hasVoted",
      "outputs": [
        {
          "internalType": "bool",
          "name": "",
          "type": "bool"
        }
      ],
      "stateMutability": "view",
      "type": "function",
      "constant": true
    },
    {
      "inputs": [
        {
          "internalType": "uint256[]",
          "name": "_options",
          "type": "uint256[]"
        },
        {
          "internalType": "uint256",
          "name": "_maxChoices",
          "type": "uint256"
        }
      ],
      "name": "startVote",
      "outputs": [],
      "stateMutability": "nonpayable",
      "type": "function"
    },
    {
      "inputs": [
        {
          "internalType": "uint256",
          "name": "ballotId",
          "type": "uint256"
        },
        {
          "internalType": "uint256[]",
          "name": "selectedOptions",
          "type": "uint256[]"
        }
      ],
      "name": "castVote",
      "outputs": [],
      "stateMutability": "nonpayable",
      "type": "function"
    },
    {
      "inputs": [
        {
          "internalType": "uint256",
          "name": "ballotId",
          "type": "uint256"
        }
      ],
      "name": "tallyVotes",
      "outputs": [],
      "stateMutability": "nonpayable",
      "type": "function"
    },
    {
      "inputs": [
        {
          "internalType": "uint256",
          "name": "ballotId",
          "type": "uint256"
        }
      ],
      "name": "getBallotInitiator",
      "outputs": [
        {
          "internalType": "address",
          "name": "",
          "type": "address"
        }
      ],
      "stateMutability": "view",
      "type": "function",
      "constant": true
    },
    {
      "inputs": [],
      "name": "getOpenBallotIds",
      "outputs": [
        {
          "internalType": "uint256[]",
          "name": "",
          "type": "uint256[]"
        }
      ],
      "stateMutability": "view",
      "type": "function",
      "constant": true
    },
    {
      "inputs": [
        {
          "internalType": "uint256",
          "name": "ballotId",
          "type": "uint256"
        }
      ],
      "name": "getBallotResults",
      "outputs": [
        {
          "internalType": "bool",
          "name": "votingIsOpen",
          "type": "bool"
        },
        {
          "internalType": "uint256[]",
          "name": "options",
          "type": "uint256[]"
        },
        {
          "internalType": "uint256[]",
          "name": "counts",
          "type": "uint256[]"
        }
      ],
      "stateMutability": "view",
      "type": "function",
      "constant": true
    }
  ],
  "bytecode": "0x608060405234801561001057600080fd5b506116df806100206000396000f3fe608060405234801561001057600080fd5b50600436106100a95760003560e01c806346b812eb1161007157806346b812eb146101645780634d318b0e146101945780636aea0344146101b057806382c9318c146101e0578063d71aae2b14610210578063dc6bfbb514610242576100a9565b8063074dbaa6146100ae5780631d98f260146100de578063286ee100146100fc5780632fa48e9e146101185780634385963214610134575b600080fd5b6100c860048036038101906100c39190610e49565b610260565b6040516100d59190610e91565b60405180910390f35b6100e661028c565b6040516100f39190610f6a565b60405180910390f35b610116600480360381019061011191906110e5565b6103b6565b005b610132600480360381019061012d9190611141565b6104d3565b005b61014e600480360381019061014991906111fb565b61080d565b60405161015b9190610e91565b60405180910390f35b61017e60048036038101906101799190610e49565b610877565b60405161018b919061124a565b60405180910390f35b6101ae60048036038101906101a99190610e49565b6108fa565b005b6101ca60048036038101906101c59190611265565b610b53565b6040516101d791906112b4565b60405180910390f35b6101fa60048036038101906101f59190610e49565b610b87565b60405161020791906112b4565b60405180910390f35b61022a60048036038101906102259190610e49565b610ba6565b604051610239939291906112cf565b60405180910390f35b61024a610d34565b60405161025791906112b4565b60405180910390f35b600080600083815260200190815260200160002060020160009054906101000a900460ff169050919050565b60606000805b6001548110156102e65760008082815260200190815260200160002060020160009054906101000a900460ff16156102d35781806102cf90611343565b9250505b80806102de90611343565b915050610292565b5060008167ffffffffffffffff81111561030357610302610fa2565b5b6040519080825280602002602001820160405280156103315781602001602082028036833780820191505090505b5090506000805b6001548110156103ac5760008082815260200190815260200160002060020160009054906101000a900460ff1615610399578083838151811061037e5761037d61138b565b5b602002602001018181525050818061039590611343565b9250505b80806103a490611343565b915050610338565b5081935050505090565b6000600160008154809291906103cb90611343565b919050559050600160008083815260200190815260200160002060020160006101000a81548160ff021916908315150217905550826000808381526020019081526020016000206003019080519060200190610428929190610d95565b5081600080838152602001908152602001600020600401819055503360008083815260200190815260200160002060050160006101000a81548173ffffffffffffffffffffffffffffffffffffffff021916908373ffffffffffffffffffffffffffffffffffffffff1602179055507fa80808a30283fc2c95db95a081ef4462dd38bb7854e6569e34c0b501eed90f4e816040516104c691906112b4565b60405180910390a1505050565b60008083815260200190815260200160002060020160009054906101000a900460ff16610535576040517f08c379a000000000000000000000000000000000000000000000000000000000815260040161052c90611417565b60405180910390fd5b60008083815260200190815260200160002060000160003373ffffffffffffffffffffffffffffffffffffffff1673ffffffffffffffffffffffffffffffffffffffff16815260200190815260200160002060009054906101000a900460ff16156105d5576040517f08c379a00000000000000000000000000000000000000000000000000000000081526004016105cc90611483565b60405180910390fd5b600080838152602001908152602001600020600401548151111561062e576040517f08c379a0000000000000000000000000000000000000000000000000000000008152600401610625906114ef565b60405180910390fd5b6000806000848152602001908152602001600020905060005b825181101561074c5760008382815181106106655761066461138b565b5b602002602001015190506106cb81846003018054806020026020016040519081016040528092919081815260200182805480156106c157602002820191906000526020600020905b8154815260200190600101908083116106ad575b5050505050610d3a565b61070a576040517f08c379a00000000000000000000000000000000000000000000000000000000081526004016107019061155b565b60405180910390fd5b826001016000016000828152602001908152602001600020600081548092919061073390611343565b919050555050808061074490611343565b915050610647565b50600160008085815260200190815260200160002060000160003373ffffffffffffffffffffffffffffffffffffffff1673ffffffffffffffffffffffffffffffffffffffff16815260200190815260200160002060006101000a81548160ff0219169083151502179055503373ffffffffffffffffffffffffffffffffffffffff167f871b62f932d6ef8afa59aed962334ae3a32efd388f7ec8932a67b7e47ae7795a848460405161080092919061157b565b60405180910390a2505050565b600080600084815260200190815260200160002060000160008373ffffffffffffffffffffffffffffffffffffffff1673ffffffffffffffffffffffffffffffffffffffff16815260200190815260200160002060009054906101000a900460ff16905092915050565b600060015482106108bd576040517f08c379a00000000000000000000000000000000000000000000000000000000081526004016108b4906115f7565b60405180910390fd5b60008083815260200190815260200160002060050160009054906101000a900473ffffffffffffffffffffffffffffffffffffffff169050919050565b60008082815260200190815260200160002060020160009054906101000a900460ff1661095c576040517f08c379a000000000000000000000000000000000000000000000000000000000815260040161095390611417565b60405180910390fd5b60008082815260200190815260200160002060050160009054906101000a900473ffffffffffffffffffffffffffffffffffffffff1673ffffffffffffffffffffffffffffffffffffffff163373ffffffffffffffffffffffffffffffffffffffff16146109ff576040517f08c379a00000000000000000000000000000000000000000000000000000000081526004016109f690611689565b60405180910390fd5b600080600083815260200190815260200160002060020160006101000a81548160ff021916908315150217905550600080600083815260200190815260200160002090506000816003018054905067ffffffffffffffff811115610a6657610a65610fa2565b5b604051908082528060200260200182016040528015610a945781602001602082028036833780820191505090505b50905060005b8260030180549050811015610b1457826001016000016000846003018381548110610ac857610ac761138b565b5b9060005260206000200154815260200190815260200160002054828281518110610af557610af461138b565b5b6020026020010181815250508080610b0c90611343565b915050610a9a565b507fa6f327f4e4d609a399484d257d812554d138a7c4546183a067aae0a49b5ef5ec8382604051610b4692919061157b565b60405180910390a1505050565b6000806000848152602001908152602001600020600101600001600083815260200190815260200160002054905092915050565b6000806000838152602001908152602001600020600401549050919050565b60006060806001548410610bef576040517f08c379a0000000000000000000000000000000000000000000000000000000008152600401610be6906115f7565b60405180910390fd5b600080600086815260200190815260200160002090508060020160009054906101000a900460ff16935080600301805480602002602001604051908101604052809291908181526020018280548015610c6757602002820191906000526020600020905b815481526020019060010190808311610c53575b50505050509250825167ffffffffffffffff811115610c8957610c88610fa2565b5b604051908082528060200260200182016040528015610cb75781602001602082028036833780820191505090505b50915060005b8351811015610d2b57816001016000016000858381518110610ce257610ce161138b565b5b6020026020010151815260200190815260200160002054838281518110610d0c57610d0b61138b565b5b6020026020010181815250508080610d2390611343565b915050610cbd565b50509193909250565b60015481565b600080600090505b8251811015610d895783838281518110610d5f57610d5e61138b565b5b602002602001015103610d76576001915050610d8f565b8080610d8190611343565b915050610d42565b50600090505b92915050565b828054828255906000526020600020908101928215610dd1579160200282015b82811115610dd0578251825591602001919060010190610db5565b5b509050610dde9190610de2565b5090565b5b80821115610dfb576000816000905550600101610de3565b5090565b6000604051905090565b600080fd5b600080fd5b6000819050919050565b610e2681610e13565b8114610e3157600080fd5b50565b600081359050610e4381610e1d565b92915050565b600060208284031215610e5f57610e5e610e09565b5b6000610e6d84828501610e34565b91505092915050565b60008115159050919050565b610e8b81610e76565b82525050565b6000602082019050610ea66000830184610e82565b92915050565b600081519050919050565b600082825260208201905092915050565b6000819050602082019050919050565b610ee181610e13565b82525050565b6000610ef38383610ed8565b60208301905092915050565b6000602082019050919050565b6000610f1782610eac565b610f218185610eb7565b9350610f2c83610ec8565b8060005b83811015610f5d578151610f448882610ee7565b9750610f4f83610eff565b925050600181019050610f30565b5085935050505092915050565b60006020820190508181036000830152610f848184610f0c565b905092915050565b600080fd5b6000601f19601f8301169050919050565b7f4e487b7100000000000000000000000000000000000000000000000000000000600052604160045260246000fd5b610fda82610f91565b810181811067ffffffffffffffff82111715610ff957610ff8610fa2565b5b80604052505050565b600061100c610dff565b90506110188282610fd1565b919050565b600067ffffffffffffffff82111561103857611037610fa2565b5b602082029050602081019050919050565b600080fd5b600061106161105c8461101d565b611002565b9050808382526020820190506020840283018581111561108457611083611049565b5b835b818110156110ad57806110998882610e34565b845260208401935050602081019050611086565b5050509392505050565b600082601f8301126110cc576110cb610f8c565b5b81356110dc84826020860161104e565b91505092915050565b600080604083850312156110fc576110fb610e09565b5b600083013567ffffffffffffffff81111561111a57611119610e0e565b5b611126858286016110b7565b925050602061113785828601610e34565b9150509250929050565b6000806040838503121561115857611157610e09565b5b600061116685828601610e34565b925050602083013567ffffffffffffffff81111561118757611186610e0e565b5b611193858286016110b7565b9150509250929050565b600073ffffffffffffffffffffffffffffffffffffffff82169050919050565b60006111c88261119d565b9050919050565b6111d8816111bd565b81146111e357600080fd5b50565b6000813590506111f5816111cf565b92915050565b6000806040838503121561121257611211610e09565b5b600061122085828601610e34565b9250506020611231858286016111e6565b9150509250929050565b611244816111bd565b82525050565b600060208201905061125f600083018461123b565b92915050565b6000806040838503121561127c5761127b610e09565b5b600061128a85828601610e34565b925050602061129b85828601610e34565b9150509250929050565b6112ae81610e13565b82525050565b60006020820190506112c960008301846112a5565b92915050565b60006060820190506112e46000830186610e82565b81810360208301526112f68185610f0c565b9050818103604083015261130a8184610f0c565b9050949350505050565b7f4e487b7100000000000000000000000000000000000000000000000000000000600052601160045260246000fd5b600061134e82610e13565b91507fffffffffffffffffffffffffffffffffffffffffffffffffffffffffffffffff82036113805761137f611314565b5b600182019050919050565b7f4e487b7100000000000000000000000000000000000000000000000000000000600052603260045260246000fd5b600082825260208201905092915050565b7f566f74696e67206973206e6f74206f70656e0000000000000000000000000000600082015250565b60006114016012836113ba565b915061140c826113cb565b602082019050919050565b60006020820190508181036000830152611430816113f4565b9050919050565b7f416c726561647920766f74656400000000000000000000000000000000000000600082015250565b600061146d600d836113ba565b915061147882611437565b602082019050919050565b6000602082019050818103600083015261149c81611460565b9050919050565b7f546f6f206d616e792063686f696365732073656c656374656400000000000000600082015250565b60006114d96019836113ba565b91506114e4826114a3565b602082019050919050565b60006020820190508181036000830152611508816114cc565b9050919050565b7f496e76616c6964206f7074696f6e2073656c6563746564000000000000000000600082015250565b60006115456017836113ba565b91506115508261150f565b602082019050919050565b6000602082019050818103600083015261157481611538565b9050919050565b600060408201905061159060008301856112a5565b81810360208301526115a28184610f0c565b90509392505050565b7f42616c6c6f7420494420646f6573206e6f742065786973740000000000000000600082015250565b60006115e16018836113ba565b91506115ec826115ab565b602082019050919050565b60006020820190508181036000830152611610816115d4565b9050919050565b7f4f6e6c79207468652062616c6c6f7420696e69746961746f722063616e20746160008201527f6c6c7920766f7465730000000000000000000000000000000000000000000000602082015250565b60006116736029836113ba565b915061167e82611617565b604082019050919050565b600060208201905081810360008301526116a281611666565b905091905056fea264697066735822122090ad3fbcce9604fb2dd081f12013cbbc58308b8cc52491e959a9a23990f046fd64736f6c634300080d0033",
  "immutableReferences": {},
  "source": "// SPDX-License-Identifier: MIT\r\npragma solidity >=0.4.22 <0.9.0;\r\n\r\ncontract uVote {\r\n\r\n    struct Vote {\r\n        mapping(uint256 => uint256) optionCounts; // Counts votes for each option\r\n    }\r\n\r\n    struct Ballot {\r\n        mapping(address => bool) hasVoted; // Tracks if an address has voted\r\n        Vote count; // Vote counts for this ballot\r\n        bool votingOpen; // Indicates if the voting is open\r\n        uint256[] options; // Array of option IDs\r\n        uint256 maxChoices; // Maximum number of choices allowed per vote\r\n        address initiator; // Address of the ballot initiator\r\n    }\r\n\r\n    mapping(uint256 => Ballot) private ballots;\r\n    uint256 public nextBallotId;\r\n\r\n    event VoteStarted(uint256 ballotId);\r\n    event Voted(address indexed voter, uint256 ballotId, uint256[] selectedOptions);\r\n    event VoteEnded(uint256 ballotId, uint256[] optionCounts);\r\n    function isVotingOpen(uint256 ballotId) public view returns (bool) {\r\n        return ballots[ballotId].votingOpen;\r\n    }\r\n\r\n    function getMaxChoices(uint256 ballotId) public view returns (uint256) {\r\n        return ballots[ballotId].maxChoices;\r\n    }\r\n\r\n    function getOptionCount(uint256 ballotId, uint256 option) public view returns (uint256) {\r\n        return ballots[ballotId].count.optionCounts[option];\r\n    }\r\n\r\n    function hasVoted(uint256 ballotId, address voter) public view returns (bool) {\r\n        return ballots[ballotId].hasVoted[voter];\r\n    }\r\n\r\n    function startVote(uint256[] memory _options, uint256 _maxChoices) public {\r\n        uint256 ballotId = nextBallotId++;\r\n        ballots[ballotId].votingOpen = true;\r\n        ballots[ballotId].options = _options;\r\n        ballots[ballotId].maxChoices = _maxChoices;\r\n        ballots[ballotId].initiator = msg.sender; // Store the address of the ballot initiator\r\n        emit VoteStarted(ballotId);\r\n    }\r\n\r\n    function castVote(uint256 ballotId, uint256[] memory selectedOptions) public {\r\n        require(ballots[ballotId].votingOpen, \"Voting is not open\");\r\n        require(!ballots[ballotId].hasVoted[msg.sender], \"Already voted\");\r\n        require(selectedOptions.length <= ballots[ballotId].maxChoices, \"Too many choices selected\");\r\n\r\n        Ballot storage ballot = ballots[ballotId];\r\n        for (uint256 i = 0; i < selectedOptions.length; i++) {\r\n            uint256 option = selectedOptions[i];\r\n            require(isValidOption(option, ballot.options), \"Invalid option selected\");\r\n            ballot.count.optionCounts[option]++;\r\n        }\r\n\r\n        ballots[ballotId].hasVoted[msg.sender] = true;\r\n        emit Voted(msg.sender, ballotId, selectedOptions);\r\n    }\r\n\r\n    function tallyVotes(uint256 ballotId) public {\r\n        require(ballots[ballotId].votingOpen, \"Voting is not open\");\r\n        require(msg.sender == ballots[ballotId].initiator, \"Only the ballot initiator can tally votes\"); // Check if the sender is the ballot initiator\r\n        ballots[ballotId].votingOpen = false;\r\n\r\n        Ballot storage ballot = ballots[ballotId];\r\n        uint256[] memory counts = new uint256[](ballot.options.length);\r\n        for (uint256 i = 0; i < ballot.options.length; i++) {\r\n            counts[i] = ballot.count.optionCounts[ballot.options[i]];\r\n        }\r\n\r\n        emit VoteEnded(ballotId, counts);\r\n    }\r\n\r\n    function getBallotInitiator(uint256 ballotId) public view returns (address) {\r\n        require(ballotId < nextBallotId, \"Ballot ID does not exist\");\r\n        return ballots[ballotId].initiator;\r\n    }\r\n\r\n    function isValidOption(uint256 option, uint256[] memory options) private pure returns (bool) {\r\n        for (uint256 i = 0; i < options.length; i++) {\r\n            if (options[i] == option) {\r\n                return true;\r\n            }\r\n        }\r\n        return false;\r\n    }\r\n\r\n    function getOpenBallotIds() public view returns (uint256[] memory) {\r\n        uint256 openBallotCount = 0;\r\n\r\n        // First, count how many ballots are open\r\n        for (uint256 i = 0; i < nextBallotId; i++) {\r\n            if (ballots[i].votingOpen) {\r\n                openBallotCount++;\r\n            }\r\n        }\r\n\r\n        // Now, collect the IDs of the open ballots\r\n        uint256[] memory openBallots = new uint256[](openBallotCount);\r\n        uint256 currentIndex = 0;\r\n        for (uint256 i = 0; i < nextBallotId; i++) {\r\n            if (ballots[i].votingOpen) {\r\n                openBallots[currentIndex] = i;\r\n                currentIndex++;\r\n            }\r\n        }\r\n\r\n        return openBallots;\r\n    }\r\n\r\n    function getBallotResults(uint256 ballotId) \r\n        public \r\n        view \r\n        returns (bool votingIsOpen, uint256[] memory options, uint256[] memory counts) \r\n    {\r\n        require(ballotId < nextBallotId, \"Ballot ID does not exist\");\r\n        Ballot storage ballot = ballots[ballotId];\r\n\r\n        votingIsOpen = ballot.votingOpen;\r\n        options = ballot.options;\r\n        counts = new uint256[](options.length);\r\n\r\n        for (uint256 i = 0; i < options.length; i++) {\r\n            counts[i] = ballot.count.optionCounts[options[i]];\r\n        }\r\n        return (votingIsOpen, options, counts);\r\n    }\r\n}\r\n",
  "sourcePath": "C:\\Users\\adams\\Documents\\GitHub\\csci2730_project_fall_2023\\uVote\\contracts\\uVote.sol",
  "compiler": {
    "name": "solc",
    "version": "0.8.13+commit.abaa5c0e.Emscripten.clang"
  },
  "schemaVersion": "3.4.16",
  "updatedAt": "2023-12-09T13:10:38.717Z",
  "networkType": "ethereum",
  "devdoc": {
    "kind": "dev",
    "methods": {},
    "version": 1
  },
  "userdoc": {
    "kind": "user",
    "methods": {},
    "version": 1
  }
}